:020000040800F2
:10000000FF170020AD470008F1420008FB4200083E
:1000100000000000000000000000000000000000E0
:100020000000000000000000000000000143000884
:1000300000000000000000000B430008154300080A
:100040002D4800082D4800082D4800082D480008BC
:100050002D4800082D4800082D48000823430008BB
:100060002D4800082D480008394300082D48000895
:100070002D4800082D4800082D4800082D4800088C
:100080005143000800000000000000002D48000857
:10009000000000002D4800082D4800082D480008E9
:1000A000000000002D4800082D480008293D0008E8
:1000B0002D480008000000002D4800082D480008C9
:1000C00010B5064C2378002B07D1054B002B02D02E
:1000D000044800E000BF0123237010BD1000002081
:1000E000000000009C480008044B10B5002B03D012
:1000F0000349044800E000BF10BDC04600000000F6
:10010000140000209C480008002243088B4274D34E
:1001100003098B425FD3030A8B4244D3030B8B4208
:1001200028D3030C8B420DD3FF22090212BA030C11
:100130008B4202D31212090265D0030B8B4219D3F2
:1001400000E0090AC30B8B4201D3CB03C01A524112
:10015000830B8B4201D38B03C01A5241430B8B425A
:1001600001D34B03C01A5241030B8B4201D30B0343
:10017000C01A5241C30A8B4201D3CB02C01A52416A
:10018000830A8B4201D38B02C01A5241430A8B422D
:1001900001D34B02C01A5241030A8B4201D30B0216
:1001A000C01A5241CDD2C3098B4201D3CB01C01A30
:1001B000524183098B4201D38B01C01A524143093A
:1001C0008B4201D34B01C01A524103098B4201D328
:1001D0000B01C01A5241C3088B4201D3CB00C01A95
:1001E000524183088B4201D38B00C01A524143080D
:1001F0008B4201D34B00C01A5241411A00D2014632
:10020000524110467047FFE701B5002000F0F0F8BA
:1002100002BDC0460029F7D076E7704703460B437E
:100220007FD4002243088B4274D303098B425FD3EF
:10023000030A8B4244D3030B8B4228D3030C8B421B
:100240000DD3FF22090212BA030C8B4202D3121201
:10025000090265D0030B8B4219D300E0090AC30BD6
:100260008B4201D3CB03C01A5241830B8B4201D383
:100270008B03C01A5241430B8B4201D34B03C01A6C
:100280005241030B8B4201D30B03C01A5241C30AE4
:100290008B4201D3CB02C01A5241830A8B4201D355
:1002A0008B02C01A5241430A8B4201D34B02C01A3F
:1002B0005241030A8B4201D30B02C01A5241CDD2E4
:1002C000C3098B4201D3CB01C01A524183098B422F
:1002D00001D38B01C01A524143098B4201D34B0118
:1002E000C01A524103098B4201D30B01C01A52417B
:1002F000C3088B4201D3CB00C01A524183088B4202
:1003000001D38B00C01A524143088B4201D34B00EA
:10031000C01A5241411A00D201465241104670475C
:100320005DE0CA0F00D04942031000D34042534061
:1003300000229C4603098B422DD3030A8B4212D321
:10034000FC22890112BA030A8B420CD38901921153
:100350008B4208D3890192118B4204D389013AD090
:10036000921100E08909C3098B4201D3CB01C01A65
:10037000524183098B4201D38B01C01A5241430978
:100380008B4201D34B01C01A524103098B4201D366
:100390000B01C01A5241C3088B4201D3CB00C01AD3
:1003A000524183088B4201D38B00C01A5241D9D2EB
:1003B00043088B4201D34B00C01A5241411A00D26C
:1003C0000146634652415B10104601D34042002B68
:1003D00000D54942704763465B1000D3404201B5E7
:1003E000002000F005F802BD0029F8D016E770479C
:1003F0007047C04680B500AF074B1A68064B102106
:100400000A431A60002000F009F803F0AFFE002351
:100410001800BD4680BDC0460020024090B583B0A4
:1004200000AF7860144B1C68144B1B781900FA233A
:100430009800FFF769FE030019002000FFF764FE33
:100440000300180000F02DF9031E01D001230FE076
:100450007B68032B0BD8796801235B4200221800CC
:1004600000F0FAF8064B7A681A60002300E00123D6
:100470001800BD4603B090BD080000200400002015
:100480000000002080B500AF054B1B781A00054B1B
:100490001B68D218034B1A60C046BD4680BDC046DB
:1004A000040000203000002080B500AF024B1B6824
:1004B0001800BD4680BDC0463000002080B584B025
:1004C00000AF7860FFF7F0FF0300BB607B68FB6064
:1004D000FB68013305D0094B1B781A00FB689B1899
:1004E000FB60C046FFF7E0FF0200BB68D31AFA6862
:1004F0009A42F7D8C046BD4604B080BD0400002033
:1005000080B582B000AF0200FB1D1A70FB1D1B7886
:100510007F2B09D8FB1D1B781A001F231A40044BA0
:10052000012191400A001A60C046BD4602B080BD5C
:1005300000E100E090B583B000AF02003960FB1D20
:100540001A70FB1D1B787F2B28D82F4AFB1D1B78A8
:100550005BB29B08C0339B009B58FA1D12781100B8
:1005600003220A40D200FF2191400A00D2431A40E0
:1005700011003B689B01FF221A40FB1D1B781800ED
:1005800003230340DB009A401F48FB1D1B785BB22E
:100590009B080A43C0339B001A5031E01B4AFB1DE5
:1005A0001B7819000F230B40083B9B0806339B0068
:1005B000D31804331B68FA1D1278110003220A4075
:1005C000D200FF2191400A00D2431A4011003B683B
:1005D0009B01FF221A40FB1D1B78180003230340D8
:1005E000DB009A400948FB1D1B781C000F232340A9
:1005F000083B9B080A4306339B00C31804331A6068
:10060000C046BD4603B090BD00E100E000ED00E053
:1006100080B582B000AF78607B68013B0C4A9342A2
:1006200001D9012310E00B4B7A68013A5A6001238B
:100630005B4203211800FFF77DFF064B00229A6002
:10064000044B07221A6000231800BD4602B080BD8B
:10065000FFFFFF0010E000E080B584B000AFB9609C
:100660007A600F217B18021C1A70BA687B181B78FD
:100670005BB211001800FFF75DFFC046BD4604B035
:1006800080BD80B582B000AF0200FB1D1A70FB1D5B
:100690001B785BB21800FFF733FFC046BD4602B0BF
:1006A00080BD80B582B000AF78607B681800FFF72E
:1006B000AFFF03001800BD4602B080BD80B584B016
:1006C00000AF78600023FB607B68002B01D1012321
:1006D00036E07B682122022199547B681B681B68E5
:1006E000FB60FB68184A1340FB607B685A687B68B4
:1006F0009B681A437B68DB681A437B681B691A4353
:100700007B685B691A437B689B691A437B68DB697A
:100710001343FA681343FB607B681B68FA681A602E
:100720007B68180000F0CEF97B6800229A637B6832
:100730002122012199547B68202200219954002311
:100740001800BD4604B080BD0FC0FFFF80B586B065
:1007500000AFF860B9607A603B601723FB18002295
:100760001A70FB6820229B5C012B01D102234FE011
:10077000FB68202201219954FB6821229B5CDBB29B
:10078000012B3AD1FB68212202219954FB680022F7
:100790009A63FB681B681A68FB681B6801218A431F
:1007A0001A603B687A68B968F86800F05FF9FB681E
:1007B000DB6A002B08D0FB681B681A68FB681B68A3
:1007C0000E210A431A600FE0FB681B681A68FB6879
:1007D0001B680A210A431A60FB681B681A68FB68D9
:1007E0001B6804218A431A60FB681B681A68FB684F
:1007F0001B6801210A431A6007E0FB6820220021E0
:1008000099541723FB1802221A701723FB181B7820
:100810001800BD4606B080BD80B582B000AF7860DC
:100820007B6821229B5CDBB2022B08D07B68042210
:100830009A637B68202200219954012320E07B6881
:100840001B681A687B681B680E218A431A607B68E4
:100850001B681A687B681B6801218A431A607B68E1
:100860001A6C7B68DB6B012191400A005A607B683F
:100870002122012199547B682022002199540023D0
:100880001800BD4602B080BD80B584B000AF78606E
:100890000F23FB1800221A707B6821229B5CDBB2BD
:1008A000022B07D07B6804229A630F23FB180122D6
:1008B0001A7028E07B681B681A687B681B680E2129
:1008C0008A431A607B681B681A687B681B68012171
:1008D0008A431A607B681A6C7B68DB6B012191404C
:1008E0000A005A607B682122012199547B682022EA
:1008F000002199547B685B6B002B04D07B685B6B99
:100900007A68100098470F23FB181B781800BD4623
:1009100004B080BD80B584B000AF78607B68DB6BCD
:100920001B68FB607B681B681B68BB607B681B6C7B
:1009300004229A401300FA68134024D0BB680422B2
:10094000134020D07B681B681B682022134007D10E
:100950007B681B681A687B681B6804218A431A60DD
:100960007B681A6C7B68DB6B042191400A005A603B
:100970007B68DB6A002B00D16AE07B68DB6A7A68FF
:100980001000984764E07B681B6C02229A401300B9
:10099000FA6813402BD0BB680222134027D07B6833
:1009A0001B681B68202213400BD17B681B681A68E8
:1009B0007B681B680A218A431A607B682122012117
:1009C00099547B681A6C7B68DB6B022191400A00AA
:1009D0005A607B682022002199547B689B6A002B17
:1009E00036D07B689B6A7A681000984730E07B6855
:1009F0001B6C08229A401300FA68134028D0BB6889
:100A00000822134024D07B681B681A687B681B6827
:100A10000E218A431A607B681A6C7B68DB6B0121AC
:100A200091400A005A607B6801229A637B68212208
:100A3000012199547B682022002199547B681B6B0B
:100A4000002B05D07B681B6B7A6810009847FFE786
:100A5000C046BD4604B080BD80B582B000AF7860AE
:100A60007B689B6B1800BD4602B080BD80B584B02A
:100A700000AFF860B9607A603B60FB681A6CFB6895
:100A8000DB6B012191400A005A60FB681B683A68E1
:100A90005A60FB685B68102B08D1FB681B687A689A
:100AA0009A60FB681B68BA68DA6007E0FB681B683D
:100AB000BA689A60FB681B687A68DA60C046BD460F
:100AC00004B080BD80B582B000AF78607B681B68E1
:100AD000084A9446634414211800FFF715FB0300ED
:100AE0009A007B681A647B68034ADA63C046BD4695
:100AF00002B080BDF8FFFDBF00000240F0B587B036
:100B000000AFF860B9603A607B601723FB180122E0
:100B10001A701623FB1800221A701523FB180022E6
:100B20001A703E4B1B7E012B01D1022372E03B4B1E
:100B300001221A761723FE18394B180000F0C4F86A
:100B4000030033701723FB181B78002B5CD1FB6864
:100B5000012B04D11523FB1801221A700BE0FB684E
:100B6000022B04D11523FB1802221A7003E015236F
:100B7000FB1804221A701623FB1800221A7039E0A1
:100B800016217B181B785A00BB68D0187B181B787D
:100B90001B011A00203A002A03DB7968D1400C00BF
:100BA00008E02022D21A796891400A003968D940B9
:100BB0000C0014437A68DA401500A3B2190000F063
:100BC00067F81723FE18164B180000F07DF8030095
:100BD0003370144B1A69134B01218A431A6117238E
:100BE000FB181B78002B0ED116217B181A787B1866
:100BF00001321A701623FA181523FB1812781B7885
:100C00009A42BDD300E0C046044B00221A76172357
:100C1000FB181B781800BD4607B0F0BD3800002057
:100C200050C300000020024080B582B000AFFB1D21
:100C300000221A700C4B1B69802213400DD00A4B06
:100C40000A4A5A60084B0A4A5A60074B1B698022BD
:100C5000134002D0FB1D01221A70FB1D1B781800E7
:100C6000BD4602B080BDC04600200240230167455A
:100C7000AB89EFCD80B500AF044B1A69034B8021DF
:100C80000A431A6100231800BD4680BD00200240BF
:100C900080B582B000AF78600A00BB1C1A80084B98
:100CA0000022DA61074B1A69064B01210A431A61D7
:100CB0007B68BA1C12881A80C046BD4602B080BD4F
:100CC000380000200020024080B584B000AF78607A
:100CD000FFF7EAFB0300FB600FE07B6801330CD0F9
:100CE0007B68002B07D0FFF7DFFB0200FB68D31AFD
:100CF0007A689A4201D203231FE0124BDB6801227B
:100D00001340012BE9D00F4BDB6820221340202B2E
:100D100002D10C4B2022DA600A4BDB681022134010
:100D2000102B05D0074BDB6804221340042B03D1A2
:100D300000F00AF8012300E000231800BD4604B0CB
:100D400080BDC0460020024080B582B000AF0023C5
:100D50007B60134BDB6810221340102B09D1114B21
:100D6000DB6902221A430F4BDA617B6810221343BE
:100D70007B600B4BDB6804221340042B09D1094B29
:100D8000DB6901221A43074BDA617B6804221343B3
:100D90007B60034B7A68DA60C046BD4602B080BD16
:100DA0000020024038000020B0B584B000AF786069
:100DB00039600F23FB1801221A700023BB60324BED
:100DC0001B7E012B01D102235AE02F4B01221A7600
:100DD0007B681B68012B16D12C4B1800FFF774FFA2
:100DE000031E47D100F056F80F23FC18274B1800BC
:100DF000FFF76AFF03002370254B1A69244B042177
:100E00008A431A6136E0214B1800FFF75DFF031E8D
:100E100030D13B68012252421A607B685B68BB603C
:100E20001FE0BB68180000F04DF80F257C19174B28
:100E30001800FFF749FF03002370154B1A69144B84
:100E400002218A431A617B191B78002B03D03B686F
:100E5000BA681A600EE0BB688022D20094466344F0
:100E6000BB607B689B689A027B685B68D318BA6832
:100E70009A42D6D3044B00221A760F23FB181B7814
:100E80001800BD4604B0B0BD3800002050C30000BB
:100E90000020024080B500AF084B0022DA61084B09
:100EA0001A69074B04210A431A61054B1A69044B5E
:100EB00040210A431A61C046BD4680BD380000206B
:100EC0000020024080B582B000AF78600A4B00225B
:100ED000DA610A4B1A69094B02210A431A61074B6E
:100EE0007A685A61054B1A69044B40210A431A611A
:100EF000C046BD4602B080BD380000200020024040
:100F000080B586B000AF7860396000237B6149E12D
:100F10003B681B6801217A6991400A001340FB601D
:100F2000FB68002B00D13AE13B685B68012B0BD0DA
:100F30003B685B68022B07D03B685B68112B03D0D2
:100F40003B685B68122B30D17B689B683B617B6997
:100F50005B0003229A401300DA433B6913403B6174
:100F60003B68DA687B695B009A4013003A69134377
:100F70003B617B683A699A607B685B683B610122F0
:100F80007B699A401300DA433B6913403B613B683D
:100F90005B681B0901221A407B699A4013003A6979
:100FA00013433B617B683A695A607B68DB683B614D
:100FB0007B695B0003229A401300DA433B691340CC
:100FC0003B613B689A687B695B009A4013003A6911
:100FD00013433B617B683A69DA603B685B68022BCC
:100FE00003D03B685B68122B23D17B69DA087B68EE
:100FF00008329200D3583B617B69072213409B0063
:101000000F229A401300DA433B6913403B613B686F
:101010001A697B6907210B409B009A4013003A69CB
:1010200013433B617B69DA087B68083292003969B7
:10103000D1507B681B683B617B695B0003229A404F
:101040001300DA433B6913403B613B685B68032252
:101050001A407B695B009A4013003A6913433B6175
:101060007B683A691A603B685A6880235B051340C5
:1010700000D194E0514B9A69504B01210A439A6187
:101080004E4B9B6901221340BB60BB684C4A7B6995
:101090009B0802339B009B583B617B6903221340F2
:1010A0009B000F229A401300DA433B6913403B61D7
:1010B0007A689023DB059A420DD07B68414A9342BF
:1010C00007D07B68404A934201D1022304E0052304
:1010D00002E0012300E000237A6903210A40920024
:1010E00093403A6913433B6135497B699B0802335E
:1010F0009B003A695A50354B1B683B61FB68DA43E9
:101100003B6913403B613B685A6880235B02134094
:1011100003D03A69FB6813433B612C4B3A691A6070
:101120002A4B5B683B61FB68DA433B6913403B61D8
:101130003B685A6880239B02134003D03A69FB68DE
:1011400013433B61214B3A695A60204B9B683B61DA
:10115000FB68DA433B6913403B613B685A68802374
:101160005B03134003D03A69FB6813433B61174BA1
:101170003A699A60154BDB683B61FB68DA433B696F
:1011800013403B613B685A6880239B03134003D0A4
:101190003A69FB6813433B610C4B3A69DA607B693F
:1011A00001337B613B681A687B69DA40131E00D00B
:1011B000AEE6C046BD4606B080BDC0460010024047
:1011C00000000140000400480008004800040140FD
:1011D00080B584B000AF78600A00BB1C1A807B68C1
:1011E0001B69BA1C1288134004D00F23FB1801227C
:1011F0001A7003E00F23FB1800221A700F23FB184C
:101200001B781800BD4604B080BD80B582B000AF29
:10121000786008001100BB1C021C1A807B1C0A1C91
:101220001A707B1C1B78002B04D0BB1C1A887B68AF
:101230009A6103E0BB1C1A887B689A62C046BD466F
:1012400002B080BD80B584B000AF78600A00BB1CDE
:101250001A807B685B69FB60BB1C1B88FA681340C3
:101260001A04FB68DB43B91C09880B401A437B68EE
:101270009A61C046BD4604B080BD000080B582B012
:1012800000AF0200BB1D1A80094B5B69BA1D1288B2
:10129000134008D0064BBA1D12885A61BB1D1B882B
:1012A000180002F09DFDC046BD4602B080BDC0469C
:1012B0000004014080B588B000AF78607B68002BE7
:1012C00002D1012300F076FB7B681B6801221340EA
:1012D00000D18EE0C54B5B680C221340042B0ED06E
:1012E000C24B5B680C221340082B17D1BF4B5A68C6
:1012F000C0235B021A4080235B029A420ED1BB4B93
:101300001A6880239B02134000D171E07B685B6800
:10131000002B00D06CE0012300F04CFB7B685B6885
:10132000012B07D1B14B1A68B04B802149020A4307
:101330001A602FE07B685B68002B0CD1AB4B1A68FE
:10134000AA4BAB490A401A60A84B1A68A74BA94997
:101350000A401A601EE07B685B68052B0ED1A34B28
:101360001A68A24B8021C9020A431A609F4B1A686F
:101370009E4B802149020A431A600BE09B4B1A687E
:101380009A4B9B490A401A60984B1A68974B9949A7
:101390000A401A607B685B68002B14D0FFF784F862
:1013A0000300BB6108E0FFF77FF80200BB69D31AB6
:1013B000642B01D90323FDE28C4B1A6880239B0226
:1013C0001340F0D015E0FFF76FF80300BB6108E0B1
:1013D000FFF76AF80200BB69D31A642B01D9032313
:1013E000E8E2824B1A6880239B021340F0D100E0B0
:1013F000C0467B681B680222134000D16CE07B4B27
:101400005B680C2213400ED0784B5B680C221340B3
:10141000082B1FD1754B5A68C0235B021A408023EA
:101420001B029A4216D1714B1B680222134005D051
:101430007B68DB68012B01D00123BBE26B4B1B688F
:10144000F822934319007B681B69DA00674B0A4353
:101450001A6041E07B68DB68002B24D0634B1A687C
:10146000624B01210A431A60FFF71EF80300BB61BB
:1014700008E0FFF719F80200BB69D31A022B01D963
:10148000032397E2594B1B6802221340F1D0574BBC
:101490001B68F822934319007B681B69DA00534BE1
:1014A0000A431A6018E0514B1A68504B01218A43D5
:1014B0001A60FEF7F9FF0300BB6108E0FEF7F4FFD6
:1014C0000200BB69D31A022B01D9032372E2474BF6
:1014D0001B6802221340F1D17B681B68082213406D
:1014E00036D07B68DB69002B19D0404B5A6A3F4BE2
:1014F00001210A435A62FEF7D7FF0300BB6108E0EF
:10150000FEF7D2FF0200BB69D31A022B01D90323D5
:1015100050E2364B5B6A02221340F1D018E0334BA5
:101520005A6A324B01218A435A62FEF7BDFF03001B
:10153000BB6108E0FEF7B8FF0200BB69D31A022BBB
:1015400001D9032336E2294B5B6A02221340F1D111
:101550007B681B680422134000D1B5E01F23FB18F1
:1015600000221A70214BDA6980235B05134011D1E8
:101570001E4BDA691D4B802149050A43DA611B4B7A
:10158000DA6980235B051340FB60FB681F23FB18AF
:1015900001221A70184B1A6880235B0013401AD17D
:1015A000154B1A68144B802149000A431A60FEF754
:1015B0007BFF0300BB6108E0FEF776FF0200BB691A
:1015C000D31A642B01D90323F4E10B4B1A6880234F
:1015D0005B001340F0D07B689B68012B0ED1034B5E
:1015E0001A6A024B01210A431A6235E000100240D8
:1015F000FFFFFEFFFFFFFBFF007000407B689B6862
:10160000002B0CD1CA4B1A6AC94B01218A431A62BA
:10161000C74B1A6AC64B04218A431A621CE07B68D6
:101620009B68052B0CD1C24B1A6AC14B04210A439B
:101630001A62BF4B1A6ABE4B01210A431A620BE0C1
:10164000BB4B1A6ABA4B01218A431A62B84B1A6A19
:10165000B74B04218A431A627B689B68002B14D025
:10166000FEF722FF0300BB6109E0FEF71DFF020049
:10167000BB69D31AAF4A934201D903239AE1AC4B19
:101680001B6A02221340F0D013E0FEF70DFF0300A7
:10169000BB6109E0FEF708FF0200BB69D31AA54A47
:1016A000934201D9032385E1A14B1B6A0222134017
:1016B000F0D11F23FB181B78012B05D19C4BDA6955
:1016C0009B4B9D490A40DA617B681B6810221340DE
:1016D00063D07B685B69012B2AD1954B5A6B944B85
:1016E00004210A435A63924B5A6B914B01210A43DE
:1016F0005A63FEF7D9FE0300BB6108E0FEF7D4FE93
:101700000200BB69D31A022B01D9032352E1884B93
:101710005B6B02221340F1D0854B5B6BF822934345
:1017200019007B689B69DA00814B0A435A6334E0F5
:101730007B685B69053311D17D4B5A6B7C4B04216F
:101740008A435A637A4B5B6BF822934319007B6898
:101750009B69DA00764B0A435A631EE0744B5A6B5E
:10176000734B04210A435A63714B5A6B704B01212E
:101770008A435A63FEF798FE0300BB6108E0FEF758
:1017800093FE0200BB69D31A022B01D9032311E196
:10179000674B5B6B02221340F1D17B681B682022F0
:1017A00013405CD0624B5B680C2213400C2B0ED0B4
:1017B0005F4B5B680C221340082B14D15C4B5A68BA
:1017C000C0235B021A40C0235B029A420BD1584BE4
:1017D0005A6B80235B02134040D07B681B6A012B4D
:1017E0003CD00123E6E07B681B6A002B1BD0504BEA
:1017F0005A6B4F4B802149020A435A63FEF754FE4D
:101800000300BB6108E0FEF74FFE0200BB69D31A7C
:10181000022B01D90323CDE0454B5A6B80235B0299
:101820001340F0D01BE0424B5A6B414B43490A40F6
:101830005A63FEF739FE0300BB6108E0FEF734FE91
:101840000200BB69D31A022B01D90323B2E0384B43
:101850005A6B80235B021340F0D100E0C0467B68E6
:101860005B6A002B00D1A4E0314B5B680C22134073
:10187000082B00D178E07B685B6A022B4CD12C4BA3
:101880001A682B4B2E490A401A60FEF70DFE030022
:10189000BB6108E0FEF708FE0200BB69D31A022B09
:1018A00001D9032386E0224B1A6880239B0413404E
:1018B000F0D11F4BDB6A0F22934319007B681A6B30
:1018C0001B4B0A43DA621A4B5B681E4A134019002D
:1018D0007B68DA6A7B689B6A1A43154B0A435A6035
:1018E000134B1A68124B802149040A431A60FEF711
:1018F000DBFD0300BB6108E0FEF7D6FD0200BB691B
:10190000D31A022B01D9032354E0094B1A68802310
:101910009B041340F0D04CE0054B1A68044B084977
:101920000A401A60FEF7C0FD0300BB6115E0C04627
:101930000010024088130000FFFFFFEFFFFFFEFFD3
:10194000FFFFFFFEFF7FC2FFFEF7AEFD0200BB6997
:10195000D31A022B01D903232CE0184B1A688023D9
:101960009B041340F0D124E07B685B6A012B01D11A
:1019700001231FE0114B5B687B61104BDB6A3B610D
:101980007A69C0235B021A407B689B6A9A420ED137
:101990003B690F221A407B681B6B9A4207D17A6918
:1019A000F0239B031A407B68DB6A9A4201D0012333
:1019B00000E000231800BD4608B080BD00100240C2
:1019C00080B584B000AF786039607B68002B01D1AE
:1019D0000123BFE0614B1B68012213403A689A4221
:1019E00011D95E4B1B680122934319005B4B3A6887
:1019F0000A431A60594B1B68012213403A689A4205
:101A000001D00123A6E07B681B680222134015D099
:101A10007B681B680422134006D0514B5A68504B18
:101A2000E021C9000A435A604D4B5B68F0229343A2
:101A300019007B689A684A4B0A435A607B681B68A6
:101A4000012213404CD07B685B68012B07D1444BCB
:101A50001A6880239B02134020D101237AE07B681F
:101A60005B68022B07D13E4B1A6880239B0413400E
:101A700014D101236EE07B685B68032B07D1384BE0
:101A80005A6B80235B02134008D1012362E0344B80
:101A90001B680222134001D101235BE0304B5B68DD
:101AA0000322934319007B685A682D4B0A435A60FE
:101AB000FEF7FAFC0300FB6009E0FEF7F5FC02000C
:101AC000FB68D31A274A934201D9032342E0244BEF
:101AD0005B680C221A407B685B689B009A42ECD1E1
:101AE0001E4B1B68012213403A689A4211D21B4BCD
:101AF0001B68012293431900184B3A680A431A6085
:101B0000164B1B68012213403A689A4201D0012308
:101B100020E07B681B680422134009D0104B5B68EF
:101B2000114A134019007B68DA680D4B0A435A606A
:101B300000F020F801000A4B5B681B090F221340DC
:101B40000A4AD35C0A00DA40094B1A600020FEF70B
:101B500065FC00231800BD4604B080BD0020024093
:101B60000010024088130000FFF8FFFFF048000853
:101B70000800002090B58FB000AF1423FB18374A3F
:101B800013CA13C312681A603B1D354A13CA13C324
:101B900012681A600023FB620023BB6200237B6390
:101BA00000237B6200233B632E4B5B68FB62FB6A76
:101BB0000C221340082B06D00C2B43D0042B44D10D
:101BC000294B3B6344E0FB6A9B0C0F221340142219
:101BD000BA18D35C7B62234BDB6A0F2213403A1D99
:101BE000D35CBB62FA6AC0235B021A4080235B02AB
:101BF0009A4209D1B96A1C48FEF786FA03001A0016
:101C00007B6A53437B631AE0FA6AC0235B021A4083
:101C1000C0235B029A4209D1B96A1448FEF774FAEC
:101C200003001A007B6A53437B6308E0B96A1048DB
:101C3000FEF76AFA03001A007B6A53437B637B6BEF
:101C40003B6305E0094B3B6302E0094B3B63C04645
:101C50003B6B1800BD460FB090BDC046B4480008AD
:101C6000C4480008001002400024F400006CDC02AC
:101C700000127A0080B500AF024B1B681800BD4609
:101C800080BDC0460800002080B500AFFFF7F2FF1E
:101C90000100064B5B681B0A07221340044AD35C11
:101CA000D9400B001800BD4680BDC0460010024060
:101CB0000049000880B586B000AF786000233B6122
:101CC0000023FB607B681A6880235B02134000D10D
:101CD0008FE01723FB1800221A70674BDA69802304
:101CE0005B05134011D1644BDA69634B80214905D0
:101CF0000A43DA61604BDA6980235B051340BB60FD
:101D0000BB681723FB1801221A705C4B1A688023EA
:101D10005B0013401AD1594B1A68584B8021490077
:101D20000A431A60FEF7C0FB03003B6108E0FEF7C0
:101D3000BBFB02003B69D31A642B01D9032397E054
:101D40004E4B1A6880235B001340F0D04A4B1A6A4E
:101D5000C0239B001340FB60FB68002B34D07B68E2
:101D60005A68C0239B001340FA689A422CD0424B19
:101D70001B6A434A1340FB603F4B1A6A3E4B80216B
:101D800049020A431A623C4B1A6A3B4B3D490A40DE
:101D90001A62394BFA681A62FB680122134013D0A9
:101DA000FEF782FB03003B6109E0FEF77DFB0200CA
:101DB0003B69D31A344A934201D9032358E02E4B8E
:101DC0001B6A02221340F0D02B4B1B6A2C4A134093
:101DD00019007B685A68284B0A431A621723FB18BC
:101DE0001B78012B05D1244BDA69234B27490A4084
:101DF000DA617B681B680122134009D01E4B1B6B04
:101E00000322934319007B689A681B4B0A431A63A9
:101E10007B681B682022134009D0174B1B6B1022D4
:101E2000934319007B68DA68134B0A431A637B6893
:101E30001A6880239B02134009D00F4B1B6B802232
:101E4000934319007B685A690B4B0A431A637B68FA
:101E50001A688023DB00134009D0074B1B6B40221C
:101E6000934319007B681A69034B0A431A630023E2
:101E70001800BD4606B080BD001002400070004052
:101E8000FFFCFFFFFFFFFEFF88130000FFFFFFEFD7
:101E900080B582B000AF78607B68002B01D1012350
:101EA00042E07B683D229B5CDBB2002B07D17B6864
:101EB0003C22002199547B68180002F07BF97B6872
:101EC0003D22022199547B681A687B68043319000B
:101ED000100000F06DFA7B684622012199547B685E
:101EE0003E22012199547B683F22012199547B684D
:101EF0004022012199547B684122012199547B6839
:101F00004222012199547B684322012199547B6824
:101F10004422012199547B684522012199547B6810
:101F20003D220121995400231800BD4602B080BD16
:101F300080B584B000AF78607B683D229B5CDBB2EB
:101F4000012B01D0012336E07B683D220221995408
:101F50007B681B68DA687B681B6801210A43DA60CA
:101F60007B681B68164A93420AD07B681A688023F4
:101F7000DB059A4204D07B681B68124A934211D158
:101F80007B681B689B6807221340FB60FB68062B7D
:101F900010D07B681B681A687B681B6801210A43A4
:101FA0001A6007E07B681B681A687B681B68012160
:101FB0000A431A6000231800BD4604B080BDC04625
:101FC000002C01400004004080B582B000AF786072
:101FD0007B681B681B6902221340022B24D17B689B
:101FE0001B68DB6802221340022B1DD17B681B6833
:101FF000032252421A617B6801221A777B681B68B0
:102000009B690322134004D07B68180000F0B8F9E4
:1020100007E07B68180000F0ABF97B68180000F05F
:10202000B7F97B6800221A777B681B681B6904225A
:102030001340042B25D17B681B68DB680422134006
:10204000042B1ED17B681B68052252421A617B68F3
:1020500002221A777B681B689A69C0239B00134091
:1020600004D07B68180000F08BF907E07B6818004B
:1020700000F07EF97B68180000F08AF97B68002286
:102080001A777B681B681B6908221340082B24D130
:102090007B681B68DB6808221340082B1DD17B6816
:1020A0001B68092252421A617B6804221A777B68F6
:1020B0001B68DB690322134004D07B68180000F022
:1020C0005FF907E07B68180000F052F97B681800A0
:1020D00000F05EF97B6800221A777B681B681B6939
:1020E00010221340102B25D17B681B68DB6810225F
:1020F0001340102B1ED17B681B68112252421A61BB
:102100007B6808221A777B681B68DA69C0239B000A
:10211000134004D07B68180000F032F907E07B68B8
:10212000180000F025F97B68180000F031F97B6891
:1021300000221A777B681B681B6901221340012B60
:102140000FD17B681B68DB6801221340012B08D18B
:102150007B681B68022252421A617B68180001F0FA
:1021600059FE7B681B681B6980221340802B0FD1AE
:102170007B681B68DB6880221340802B08D17B685A
:102180001B68812252421A617B68180000F080FAB5
:102190007B681B681B6940221340402B0FD17B6872
:1021A0001B68DB6840221340402B08D17B681B680A
:1021B000412252421A617B68180000F0F1F87B68F6
:1021C0001B681B6920221340202B0FD17B681B68E2
:1021D000DB6820221340202B08D17B681B6821225A
:1021E00052421A617B68180000F04AFAC046BD46A8
:1021F00002B080BD80B584B000AF786039607B6884
:102200003C229B5C012B01D10223ABE07B683C228A
:10221000012199547B683D22022199547B681B68F7
:102220009B68FB60FB6877229343FB60FB684F4A27
:102230001340FB607B681B68FA689A603B681B6808
:10224000402B00D16BE00ED8102B00D177E003D8E3
:10225000002B00D173E07CE0202B00D16FE0302B0D
:1022600000D16CE075E0702B0ED004D8502B36D026
:10227000602B44D06DE080225201934268D08022CE
:102280009201934217D064E07B6818683B689968B4
:102290003B685A683B68DB6800F07AF97B681B682A
:1022A0009B68FB60FB6877221343FB607B681B68BD
:1022B000FA689A604DE07B6818683B6899683B68EB
:1022C0005A683B68DB6800F063F97B681B689A68B2
:1022D0007B681B688021C9010A439A6039E07B68EA
:1022E00018683B6859683B68DB681A0000F0D6F84C
:1022F0007B681B685021180000F030F929E07B68EA
:1023000018683B6859683B68DB681A0000F0F4F80D
:102310007B681B686021180000F020F919E07B68D9
:1023200018683B6859683B68DB681A0000F0B6F82B
:102330007B681B684021180000F010F909E07B68F9
:102340001A683B681B681900100000F007F900E0EC
:10235000C0467B683D22012199547B683C220021C4
:10236000995400231800BD4604B080BDFF00FFFF54
:1023700080B582B000AF7860C046BD4602B080BD77
:1023800080B582B000AF7860C046BD4602B080BD67
:1023900080B582B000AF7860C046BD4602B080BD57
:1023A00080B582B000AF7860C046BD4602B080BD47
:1023B00080B584B000AF786039607B681B68FB60D3
:1023C0007B68304A934208D07A688023DB059A42C2
:1023D00003D07B682C4A934208D1FB687022934358
:1023E000FB603B685B68FA681343FB607B68254AC7
:1023F000934214D07A688023DB059A420FD07B6821
:10240000214A93420BD07B68204A934207D07B68D5
:102410001F4A934203D07B681E4A934208D1FB684F
:102420001D4A1340FB603B68DB68FA681343FB609E
:10243000FB68802293431A003B685B691343FB608F
:102440007B68FA681A603B689A687B68DA623B6866
:102450001A687B689A627B680A4A934207D07B6855
:102460000B4A934203D07B680A4A934203D13B68EC
:102470001A697B681A637B6801225A61C046BD46AF
:1024800004B080BD002C014000040040002000404A
:102490000044014000480140FFFCFFFF80B586B0CA
:1024A00000AFF860B9607A60FB681B6A7B61FB680B
:1024B0001B6A012293431A00FB681A62FB689B693E
:1024C0003B613B69F02293433B617B681B013A69A6
:1024D00013433B617B690A2293437B617A69BB6842
:1024E00013437B61FB683A699A61FB687A691A62F7
:1024F000C046BD4606B080BD80B586B000AFF8606E
:10250000B9607A60FB681B6A102293431A00FB686B
:102510001A62FB689B697B61FB681B6A3B617B6994
:102520000D4A13407B617B681B037A6913437B610F
:102530003B69A02293433B61BB681B013A6913438B
:102540003B61FB687A699A61FB683A691A62C04626
:10255000BD4606B080BDC046FF0FFFFF80B584B00A
:1025600000AF786039607B689B68FB60FB68702215
:102570009343FB603A68FB68134307221343FB60F5
:102580007B68FA689A60C046BD4604B080BD000012
:1025900080B586B000AFF860B9607A603B60FB68D8
:1025A0009B687B617B69094A13407B613B681A0227
:1025B0007B681A43BB6813437A6913437B61FB68EA
:1025C0007A699A60C046BD4606B080BDFF00FFFF35
:1025D00080B584B000AF786039607B683C229B5C3A
:1025E000012B01D1022342E07B683C220121995456
:1025F0007B683D22022199547B681B685B68FB6005
:102600007B681B689B68BB60FB6870229343FB6020
:102610003B681B68FA681343FB607B681B68FA68B9
:102620005A607B681B68144A93420AD07B681A6818
:102630008023DB059A4204D07B681B680F4A9342D3
:102640000CD1BB6880229343BB603B685B68BA686F
:102650001343BB607B681B68BA689A607B683D2245
:10266000012199547B683C220021995400231800D1
:10267000BD4604B080BDC046002C014000040040AF
:1026800080B582B000AF7860C046BD4602B080BD64
:1026900080B582B000AF7860C046BD4602B080BD54
:1026A00080B582B000AF78607B68002B01D1012338
:1026B00044E07B689B6F002B07D17B68742200216C
:1026C00099547B68180001F09BFD7B6824229A676F
:1026D0007B681B681A687B681B6801218A431A6043
:1026E0007B68180000F0CAFB0300012B01D1012315
:1026F00024E07B685B6A002B03D07B68180000F045
:10270000FBFC7B681B685A687B681B680D490A40A4
:102710005A607B681B689A687B681B682A218A4319
:102720009A607B681B681A687B681B6801210A43F2
:102730001A607B68180000F093FD03001800BD4686
:1027400002B080BDFFB7FFFF80B58AB002AFF8606E
:10275000B9603B60BB1D1A80FB689B6F202B00D0CB
:1027600096E0BB68002B03D0BB1D1B88002B01D15A
:1027700001238EE0FB689A6880235B019A4209D1AD
:10278000FB681B69002B05D1BB680122134001D0F7
:1027900001237EE0FB6874229B5C012B01D10223A4
:1027A00077E0FB68742201219954FB6880220021A4
:1027B0009950FB6821229A67FDF776FE03007B6142
:1027C000FB68BA1D502112885A52FB68BA1D52216B
:1027D00012885A52FB689A6880235B019A4208D19A
:1027E000FB681B69002B04D10023FB61BB68BB6144
:1027F00003E0BB68FB610023BB61FB68742200211E
:1028000099542DE07A69F8683B6800931300002220
:10281000802100F06FFD031E01D0032339E0FB6926
:10282000002B0BD1BB691A88FB681B68D205D20D3F
:1028300092B21A85BB690233BB6108E0FB691A7862
:10284000FB681B6892B21A85FB690133FB61FB6868
:1028500052229B5A9BB2013B99B2FB685222995279
:10286000FB6852229B5A9BB2002BCBD17A69F86845
:102870003B68009313000022402100F03BFD031E43
:1028800001D0032305E0FB6820229A67002300E0C3
:1028900002231800BD4608B080BD80B584B000AFEB
:1028A000F860B960BB1D1A80FB68DB6F202B3FD13D
:1028B000BB68002B03D0BB1D1B88002B01D101235B
:1028C00037E0FB689A6880235B019A4209D1FB6874
:1028D0001B69002B05D1BB680122134001D00123E5
:1028E00027E0FB6874229B5C012B01D1022320E0CE
:1028F000FB68742201219954FB6800221A66FB6868
:102900001B685A6880231B04134008D0FB681B68AF
:102910001A68FB681B688021C9040A431A60BB1D42
:102920001A88B968FB68180000F062FD030000E037
:1029300002231800BD4604B080BD80B584B000AF4E
:1029400078607B689B6FFB607B68DB6FBB607B683C
:102950001B689B6880221340802B27D1FB68212BAA
:1029600024D17B681B689A687B681B6880218A4336
:102970009A607B68DB6E002B14D07B68DB6E1800DE
:10298000FDF74AFF031E0DD07B68DB6E1800FEF7D3
:1029900063F80300202B05D17B6880221021995019
:1029A000032333E07B68180000F090FD7B681B6810
:1029B0009B6840221340402B27D1BB68222B24D197
:1029C0007B681B689A687B681B6840218A439A6011
:1029D0007B681B6F002B14D07B681B6F1800FDF702
:1029E0001BFF031E0DD07B681B6F1800FEF734F829
:1029F0000300202B05D17B688022102199500323EE
:102A000004E07B68180000F075FD00231800BD4647
:102A100004B080BD80B588B000AF78607B681B686B
:102A2000DB69FB617B681B681B68BB617B681B689B
:102A30009B687B61FB69B54A13403B613B69002B96
:102A400012D1FB69202213400ED0BB692022134013
:102A50000AD07B685B6E002B00D1D4E17B685B6E93
:102A60007A6810009847CEE13B69002B00D1D9E08D
:102A70007B690122134004D1BB69A54A134000D1F0
:102A8000D0E0FB690122134010D0BA6980235B00BB
:102A900013400BD07B681B6801221A627B6880227E
:102AA0009B5801221A437B6880215A50FB690222FD
:102AB00013400FD07B69012213400BD07B681B6849
:102AC00002221A627B6880229B5804221A437B6888
:102AD00080215A50FB69042213400FD07B690122E8
:102AE00013400BD07B681B6804221A627B6880222B
:102AF0009B5802221A437B6880215A50FB690822A6
:102B0000134013D0BB692022134003D17B690122FB
:102B100013400BD07B681B6808221A627B688022F6
:102B20009B5808221A437B6880215A50FA698023F7
:102B30001B01134011D0BA698023DB0413400CD071
:102B40007B681B68802212011A627B6880229B5876
:102B500020221A437B6880215A507B6880229B5830
:102B6000002B00D151E1FB69202213400CD0BB693E
:102B70002022134008D07B685B6E002B04D07B685A
:102B80005B6E7A68100098477B6880229B58FB60D8
:102B90007B681B689B6840221340402B03D0FB6876
:102BA0002822134033D07B68180000F0A3FC7B6818
:102BB0001B689B6840221340402B23D17B681B6815
:102BC0009A687B681B6840218A439A607B681B6F08
:102BD000002B12D07B681B6F4E4A5A637B681B6FB9
:102BE0001800FDF751FE031E1AD07B681B6F5A6B4D
:102BF0007B681B6F1800904712E07B68180000F09C
:102C000029F90DE07B68180000F024F908E07B68E2
:102C1000180000F01FF97B68802200219950F4E031
:102C2000C046F2E07B681B6E012B00D0B7E0FB6969
:102C30001022134000D1B2E0BB691022134000D132
:102C4000ADE07B681B6810221A627B681B689B687A
:102C500040221340402B61D17B681B6F1B685A6870
:102C600008217B181A807B181B88002B00D1CEE02E
:102C70007B6858229B5A0822BA1812889A4200D3BD
:102C8000C5E07B680822BA185A2112885A527B681C
:102C90001B6F9B69202B2AD07B681B681A687B6896
:102CA0001B681D490A401A607B681B689A687B682C
:102CB0001B6801218A439A607B681B689A687B685D
:102CC0001B6840218A439A607B682022DA677B6810
:102CD00000221A667B681B681A687B681B681021D3
:102CE0008A431A607B681B6F1800FDF795FD7B68AF
:102CF00058229A5A7B685A215B5A9BB2D31A9AB2CD
:102D00007B681100180000F0ADF880E00F080000AB
:102D100020010004AF360008FFFEFFFF7B68582249
:102D2000995A7B685A229B5A9AB20A23FB188A1A2C
:102D30001A807B685A229B5A9BB2002B00D168E014
:102D40000A23FB181B88002B63D07B681B681A685A
:102D50007B681B6832490A401A607B681B689A6866
:102D60007B681B6801218A439A607B682022DA67AE
:102D70007B6800221A667B6800225A667B681B68A3
:102D80001A687B681B6810218A431A600A23FB18A3
:102D90001A887B681100180000F064F839E0FA69BD
:102DA00080235B0313400ED07A698023DB0313403A
:102DB00009D07B681B68802252031A627B68180066
:102DC00000F0A6FC28E0FB69802213400DD0BB690F
:102DD0008022134009D07B689B6E002B1BD07B6840
:102DE0009B6E7A681000984715E0FB6940221340FB
:102DF00012D0BB69402213400ED07B68180000F04F
:102E00006DFCC04608E0C04606E0C04604E0C0468F
:102E100002E0C04600E0C046BD4608B080BDC046E6
:102E2000DFFEFFFF80B582B000AF7860C046BD46D0
:102E300002B080BD80B582B000AF7860C046BD46AC
:102E400002B080BD80B582B000AF7860C046BD469C
:102E500002B080BD80B582B000AF7860C046BD468C
:102E600002B080BD80B582B000AF78600A00BB1CA4
:102E70001A80C046BD4602B080BD000080B588B053
:102E800000AF78601E23FB1800221A707B689A68D6
:102E90007B681B691A437B685B691A437B68DB6943
:102EA00013437B617B681B681B688B4A13401900C6
:102EB0007B681B687A690A431A607B681B685B68D9
:102EC000864A134019007B68DA687B681B680A43EE
:102ED0005A607B689B697B617B681B6A7A691343D4
:102EE0007B617B681B689B687D4A134019007B6887
:102EF0001B687A690A439A607B681B68794A934227
:102F000025D1794B1B6B03221340012B0FD004D327
:102F1000022B11D0032B05D013E01F23FB18002236
:102F20001A7022E01F23FB1802221A701DE01F23D3
:102F3000FB1804221A7018E01F23FB1808221A70CD
:102F400013E01F23FB1810221A70C0460DE07B68A7
:102F50001B68664A934204D11F23FB1800221A7093
:102F600003E01F23FB1810221A707B68DA698023A4
:102F70001B029A425CD11F23FB181B78022B0DD039
:102F800002DC002B05D015E0042B0AD0082B0DD055
:102F900010E0FEF779FE0300BB6112E0544BBB6109
:102FA0000FE0FEF7E7FD0300BB610AE080231B0290
:102FB000BB6106E00023BB611E23FB1801221A70CF
:102FC000C046BB69002B00D179E0BB695A007B6821
:102FD0005B685B08D2187B685B6819001000FDF71E
:102FE00093F803009BB23B613B690F2B1BD93B69F4
:102FF000404A934217D83B699AB20E203B180F21E2
:103000008A431A803B695B089BB20722134099B23E
:103010003B183A1812880A431A807B681B683A18D2
:103020001288DA604BE01E23FB1801221A7046E07A
:103030001F23FB181B78022B0DD002DC002B05D0C0
:1030400015E0042B0AD0082B0DD010E0FEF71CFE73
:103050000300BB6112E0264BBB610FE0FEF78AFD67
:103060000300BB610AE080231B02BB6106E0002372
:10307000BB611E23FB1801221A70C046BB69002BDE
:103080001DD07B685B685A08BB69D2187B685B6897
:1030900019001000FDF738F803009BB23B613B6953
:1030A0000F2B08D93B69134A934204D87B681B68ED
:1030B0003A69DA6003E01E23FB1801221A707B686C
:1030C00000225A667B6800229A661E23FB181B7832
:1030D0001800BD4608B080BDF369FFEFFFCFFFFFCA
:1030E000FFF4FFFF003801400010024000440040A0
:1030F00000127A00FFFF000080B582B000AF786058
:103100007B685B6A012213400BD07B681B685B689D
:103110004A4A134019007B689A6A7B681B680A4315
:103120005A607B685B6A022213400BD07B681B6885
:103130005B68434A134019007B68DA6A7B681B6846
:103140000A435A607B685B6A042213400BD07B6899
:103150001B685B683B4A134019007B681A6B7B68ED
:103160001B680A435A607B685B6A082213400BD0D5
:103170007B681B685B68344A134019007B685A6B94
:103180007B681B680A435A607B685B6A10221340A5
:103190000BD07B681B689B682C4A134019007B6826
:1031A0009A6B7B681B680A439A607B685B6A202283
:1031B00013400BD07B681B689B68254A134019009D
:1031C0007B68DA6B7B681B680A439A607B685B6A82
:1031D000402213401DD07B681B685B681D4A13406A
:1031E00019007B681A6C7B681B680A435A607B680D
:1031F0001A6C80235B039A420BD17B681B685B6867
:10320000154A134019007B685A6C7B681B680A4397
:103210005A607B685B6A802213400BD07B681B6816
:103220005B680E4A134019007B689A6C7B681B68C8
:103230000A435A60C046BD4602B080BDFFFFFDFF95
:10324000FFFFFEFFFFFFFBFFFF7FFFFFFFEFFFFF23
:10325000FFDFFFFFFFFFEFFFFFFF9FFFFFFFF7FF16
:1032600080B586B002AF78607B68802200219950DB
:10327000FDF71AF90300FB607B681B681B680822D6
:103280001340082B0DD1FA68802399037868184BF6
:1032900000931300002200F02DF8031E01D0032339
:1032A00022E07B681B681B6804221340042B0DD1AD
:1032B000FA688023D90378680D4B0093130000222D
:1032C00000F018F8031E01D003230DE07B682022D4
:1032D0009A677B682022DA677B6800221A667B681F
:1032E00074220021995400231800BD4604B080BD0B
:1032F000FFFFFF0180B584B000AFF860B9603B60AC
:10330000FB1D1A705EE0BB6901335BD0FDF7CCF8A2
:1033100002003B68D31ABA699A4202D3BB69002BF8
:103320001BD1FB681B681A68FB681B682F490A40A1
:103330001A60FB681B689A68FB681B6801218A4356
:103340009A60FB6820229A67FB682022DA67FB6894
:10335000742200219954032344E0FB681B681B6816
:10336000042213402ED0FB681B68DA6980231B01FE
:103370001A4080231B019A4224D1FB681B688022DB
:1033800012011A62FB681B681A68FB681B68174900
:103390000A401A60FB681B689A68FB681B68012179
:1033A0008A439A60FB6820229A67FB682022DA67CA
:1033B000FB68802220219950FB68742200219954D7
:1033C00003230FE0FB681B68DB69BA681340BA6827
:1033D000D31A5A425341DBB21A00FB1D1B789A42A2
:1033E00091D000231800BD4604B080BD5FFEFFFFF2
:1033F00080B584B000AFF860B960BB1D1A80FB686F
:10340000BA685A65FB68BA1D582112885A52FB687F
:10341000802200219950FB682222DA67FB681B6F2B
:10342000002B2BD0FB681B6F254A9A62FB681B6F31
:10343000244ADA62FB681B6F234A1A63FB681B6F1E
:1034400000225A63FB68186FFB681B68243319005D
:10345000FB685B6D1A00BB1D1B88FDF777F9031E27
:103460000CD0FB68802210219950FB687422002147
:103470009954FB6820229A6701231DE0FB6874229F
:1034800000219954FB681B681A68FB681B6880213F
:1034900049000A431A60FB681B689A68FB681B684E
:1034A00001210A439A60FB681B689A68FB681B68E5
:1034B00040210A439A6000231800BD4604B080BD35
:1034C00055350008F13500082D36000880B582B06A
:1034D00000AF78607B681B681A687B681B68C02136
:1034E0008A431A607B6820229A67C046BD4602B0B4
:1034F00080BD000080B582B000AF78607B681B683B
:103500001A687B681B6812490A401A607B681B684E
:103510009A687B681B6801218A439A607B681B6EEE
:10352000012B07D17B681B681A687B681B68102118
:103530008A431A607B682022DA677B6800221A6659
:103540007B6800225A66C046BD4602B080BDC046B8
:10355000DFFEFFFF80B584B000AF78607B685B6AF8
:10356000FB607B689B69202B2AD0FB685A220021D4
:103570009952FB681B681A68FB681B681B490A4064
:103580001A60FB681B689A68FB681B6801218A4304
:103590009A60FB681B689A68FB681B6840218A4335
:1035A0009A60FB682022DA67FB681B6E012B07D14B
:1035B000FB681B681A68FB681B6810218A431A6045
:1035C000FB681B6E012B08D1FB6858229A5AFB68D6
:1035D00011001800FFF746FC03E0FB681800FFF736
:1035E00029FCC046BD4604B080BDC046FFFEFFFFBB
:1035F00080B584B000AF78607B685B6AFB60FB6875
:103600001B6E012B0AD1FB6858229B5A5B089AB2A9
:10361000FB6811001800FFF725FC03E0FB681800A9
:10362000FFF710FCC046BD4604B080BD80B586B033
:1036300000AF78607B685B6A7B617B699B6F3B61F5
:103640007B69DB6FFB607B691B689B688022134092
:10365000802B0AD13B69212B07D17B6952220021A3
:1036600099527B691800FFF731FF7B691B689B68E3
:1036700040221340402B0AD1FB68222B07D17B69E3
:103680005A22002199527B691800FFF733FF7B69AA
:1036900080229B5810221A437B6980215A507B69F3
:1036A0001800FFF7D7FBC046BD4606B080BD80B509
:1036B00084B000AF78607B685B6AFB60FB685A226D
:1036C00000219952FB68522200219952FB68180090
:1036D000FFF7C0FBC046BD4604B080BD80B582B0D8
:1036E00000AF78607B681B681A687B681B684021A4
:1036F0008A431A607B6820229A677B6800229A6658
:103700007B681800FFF78EFBC046BD4602B080BD47
:1037100080B582B000AF7860C046BD4602B080BDC3
:1037200080B586B000AFF860B9601900FB1D1A7053
:10373000BB1D0A1C1A7017203B1862221A70162132
:103740007B1800221A70FA1D3B1812781B78D318C8
:10375000DAB23B1801321A7008003B181B783A188D
:10376000591C11701A00FB689B1862221A703B18D2
:103770001B783A18591C11701A00FB689B18FA1D27
:1037800012780132D2B21A703B181B783A18591CC1
:1037900011701A00FB689B18BA1D12781A7000236A
:1037A0003B611AE03B69BA68D21816217B181B7876
:1037B0007918581C08701900FB685B1812781A7089
:1037C0003B69BA68D31819781722BB18BA1812784F
:1037D0008A181A703B6901333B61FB1D1B783A69FB
:1037E0009A42DFDB16203B181B783A18591C1170DF
:1037F0001A00FB689B181722BA1812781A703B1827
:103800001B781800BD4606B080BD000090B5C7B05B
:1038100000AFF860B960634B8C2149008C46BC4412
:1038200063441A70604B8C2252009446BC4463443B
:1038300000221A70BB681B78622B00D09DE0594BA8
:103840008C2252009446BC4463441B78032B00D85E
:1038500093E01621FF317B18BA6852781A70514BE9
:103860008C2252009446BC4463441A787B181B781F
:1038700003339A4200DA8FE04B4B8C22520094467D
:10388000BC4463441621FF317A1812785A70182309
:10389000FF33FB187A18127862321A708B235B00A0
:1038A000FB1800221A7024E08B2040003B181B7884
:1038B0000233BA68D2183B181B7811783A4A8C2424
:1038C0006400A446BC446244D3180A1C9A703B1896
:1038D0001B780233BA68D31819781822FF32BB1844
:1038E000BA1812788A181A703B181A783B180132E5
:1038F0001A708B235B00FA181623FF33FB1812781B
:103900001B789A42D0D31623FF33FB181B7802335F
:10391000BA68D2188A2149007B1812781A701823C5
:10392000FF33FA187B1812781B789A4216D11E4B77
:103930008C2252009446BC44634401221A70FA68F7
:10394000194B8C2149008C46BC446344100019007B
:103950000223FF331A0000F08FFF1FE0FA68124BBA
:103960008C2149008C46BC4463441000190002239A
:10397000FF331A0000F080FF10E0FA680A4B8C2138
:1039800049008C46BC446344100019000223FF33F5
:103990001A0000F071FF01E0C046C046F868BD465D
:1039A00047B090BDEFFEFFFFF8FEFFFF80B500AF10
:1039B000FCF720FD00F024F800F028F900F008F9E9
:1039C00000F072F800F0C4F800F012FD0849094B4D
:1039D000FF221800FEF761FF074B1800FEF7A8FA58
:1039E000064B012202211800FDF70FFCFEE7C0463E
:1039F000E4010020380100209C0000200004004861
:103A000090B599B000AF2C243B19180034231A004C
:103A1000002100F03AFF1C23FB18180010231A00A5
:103A2000002100F032FF3B1D180018231A0000216E
:103A300000F02BFF3B1920221A603B1901221A6269
:103A40003B1900225A623B191800FDF733FC031E94
:103A500001D000F07DFB1C217B1807221A607B1827
:103A600003225A607B1800229A607B180022DA60D9
:103A70007B1801211800FDF7A3FF031E01D000F001
:103A800067FB3B1D01221A603B1D00229A603B1D13
:103A90001800FEF70FF9031E01D000F059FBC046D5
:103AA000BD4619B090BD000080B586B000AF0823B8
:103AB000FB18180010231A00002100F0E6FE3B005E
:103AC000180008231A00002100F0DFFE1E4B1F4AD9
:103AD0001A601D4B2F225A601B4B00229A601A4B12
:103AE0006322DA60184B00221A61174B80229A6118
:103AF000154B1800FEF7CCF9031E01D000F028FB8F
:103B000008217B18802252011A607A180E4B11008E
:103B10001800FEF76FFB031E01D000F019FB3B00FD
:103B200000221A603B0000225A603A00064B110046
:103B30001800FEF74DFD031E01D000F009FBC04642
:103B4000BD4606B080BDC0469C0000200004004079
:103B500080B500AF1C4B1D4A1A601B4BE12252027C
:103B60005A60194B00229A60174B0022DA60164BFC
:103B700000221A61144B0C225A61134B00229A61E5
:103B8000114B0022DA61104B00221A620E4B002208
:103B90005A620D4B1800FEF783FD031E01D000F0A2
:103BA000D7FA094B1B681A68074B1B6810210A4398
:103BB0001A60002200211B20FCF74EFD1B20FCF7A1
:103BC00060FDC046BD4680BD380100200038014080
:103BD00080B582B000AF0C4B5A690B4B01210A43F0
:103BE0005A61094B5B69012213407B607B680022AC
:103BF00000210A20FCF730FD0A20FCF742FDC046F8
:103C0000BD4602B080BDC0460010024090B589B0EC
:103C100000AF0C243B19180014231A00002100F0F7
:103C200034FE3E4B5A693D4B8021C9030A435A6119
:103C30003A4B5A698023DB031340BB60BB68374BA8
:103C40005A69364B802189020A435A61334B5A69BB
:103C500080239B0213407B607B68304B5A692F4B5B
:103C60008021C9020A435A612C4B5A698023DB0226
:103C700013403B603B689023DB050022FF211800C6
:103C8000FDF7C3FA264B002202211800FDF7BDFA0A
:103C90003B19FF221A603B1901225A603B1900228E
:103CA0009A603B190322DA603A199023DB05110070
:103CB0001800FDF725F921007B1802221A607B18F5
:103CC00001225A607B1800229A607B180022DA6079
:103CD0000C007B18124A19001000FDF711F92100A1
:103CE0007B18802252001A607B180E4A5A607B189B
:103CF00000229A607A189023DB0511001800FDF766
:103D0000FFF8002200210720FCF7A6FC0720FCF7A3
:103D1000B8FCC046BD4609B090BDC0460010024088
:103D2000000400480000211080B500AF054B1800CA
:103D3000FEF770FE034B180000F006F8C046BD46C3
:103D400080BDC0463801002080B582B000AF7860E9
:103D50000B4B1B680B4A93420ED1094B1B68DB6966
:103D600010221340102B07D1054B1B6810221A623A
:103D70007B68180000F008F8C046BD4602B080BD60
:103D8000380100200038014080B582B000AF786073
:103D90000F4B1800FEF7D1FD0E4B1B685B68DBB2C2
:103DA000DB43DAB20C4B1A7000F076F80A4B1B7842
:103DB0001A000A4B0021180000F067FD0749044B68
:103DC000FF221800FEF769FDC046BD4602B080BD67
:103DD00038010020E40000202C000020E401002035
:103DE00080B582B000AF0200BB1D1A80BB1D1A88CF
:103DF00080235B009A4207D1054B1B785A425341FE
:103E0000DBB21A00024B1A70C046BD4602B080BD3C
:103E10005800002080B584B000AF78607B681B68D4
:103E20001A4A934226D10023FB6020E0184BFA681F
:103E30009200D258174BF9688900CB589A420AD39E
:103E4000FB68DBB2180000F073FC114BFA689200BB
:103E50000021D15008E00E4BFA689200D358591C4B
:103E60000B4BFA689200D150FB680133FB60FB6892
:103E7000072BDBDD7B681B68044A934201D1FCF70A
:103E800001FBC046BD4604B080BDC04600040040F2
:103E9000C40100207C000020B0B5CAB000AFA24B26
:103EA0001A78A24B942149008C46BC446344A04933
:103EB0001800FFF7ABFC9D4B942252009446BC4483
:103EC00063441B78012B00D01EE1922149007B182E
:103ED000964A942040008446BC44624492781A700A
:103EE0007B181B78903B062B00D90FE19A00914B71
:103EF000D3181B689F46904B1B785A425341DBB244
:103F00001A008D4B1A700AE1884B94225200944695
:103F1000BC4463445B78092B00D0F9E02823FF33CD
:103F2000FB1800221A7019E02821FF317B181B783A
:103F300001337E4A942040008446BC446244D31836
:103F40009A780C007B181B781100180000F068FBB1
:103F500021007B181A787B1801321A702823FF334E
:103F6000FB181B78072BDFD9D2E0704B942252004C
:103F70009446BC4463445B78092B00D0CAE0932389
:103F80005B00FB1800221A7027E093235B00FB18EC
:103F90001B78664A942149008C46BC446244D3187D
:103FA0009B78002B12D0932149007B181B7801339A
:103FB0005E4A942040008446BC446244D3189A78F8
:103FC0007B181B781100180000F0ACFA932149000F
:103FD0007B181A787B1801321A7093235B00FB1848
:103FE0001B78072BD1D995E0504B94225200944670
:103FF000BC4463445B78032B00D08DE04B4B942290
:1040000052009446BC446344DA78484B94214900FA
:104010008C46BC4463441B791900100000F000FB7F
:104020007AE0424B942252009446BC4463445B784D
:10403000032B73D13D4B942252009446BC446344FD
:10404000DA783A4B942149008C46BC4463441B798E
:104050001900100000F066FA60E0912464003B193A
:104060000C221A7035491425781995230822FFF778
:1040700057FB3B191B789AB2791931486423FEF734
:1040800063FB4CE02423FF33FB180C221A70262319
:10409000FF33FB1800221A701EE02620FF300400B8
:1040A0003B181A78274B9200D3585B00190026481A
:1040B000FCF72AF803001A0020003B181B78D1B245
:1040C000224A94246400A446BC446244D1543B1860
:1040D0001A783B1801321A702623FF33FB181B781D
:1040E000072BDAD939000824381996230822FFF75C
:1040F00017FB2423FF33FB181B789AB23919104899
:104100006423FEF721FB0AE0C04608E0C04606E053
:10411000C04604E0C04602E0C04600E0C046C046DB
:10412000BD464AB0B0BDC0462C000020F8FEFFFFDF
:10413000E4010020D448000858000020BC01002001
:10414000380100207C00002010270000D8FEFFFF6F
:1041500080B500AF044B02211800FDF773F8FA2078
:10416000FCF7ACF9F6E7C0460004004880B582B021
:1041700000AF0F4B9A690E4B01210A439A610C4B19
:104180009B69012213407B607B68094BDA69084B0D
:10419000802149050A43DA61054BDA6980235B0512
:1041A00013403B603B68C046BD4602B080BDC04680
:1041B0000010024080B584B000AF78607B681B6857
:1041C0000D4A934213D10D4BDA690C4B02210A437D
:1041D000DA610A4BDB6902221340FB60FB680022B4
:1041E00000211020FCF738FA1020FCF74AFAC046EC
:1041F000BD4604B080BDC04600040040001002402F
:1042000080B58AB000AF78601423FB18180014231F
:104210001A00002100F039FB7B681B68304A93428A
:104220005AD1304B9A692F4B8021C9010A439A61B8
:104230002C4B9A698023DB0113403B613B69294B7E
:104240005A69284B802189020A435A61254B5A69D1
:1042500080239B021340FB60FB6814217B18C02263
:10426000D2001A607B1802225A607B1800229A60E2
:104270007B180322DA607B1801221A617A189023D6
:10428000DB0511001800FCF73BFE174B174A1A60BC
:10429000154B00225A60144B00229A60124B802268
:1042A000DA60114B00221A610F4B00225A610E4B4B
:1042B00020229A610C4B80225201DA610A4B1800CD
:1042C000FCF7FCF9031E01D0FFF742FF7B68064AAA
:1042D0001A67054B7A685A62C046BD460AB080BD6F
:1042E0000038014000100240E4000020300002408D
:1042F00080B500AFC046BD4680BD80B500AFFEE7CB
:1043000080B500AFC046BD4680BD80B500AFC04699
:10431000BD4680BD80B500AFFCF7B4F8C046BD46D1
:1043200080BD80B500AF80235B001800FCF7A6FFBE
:10433000C046BD4680BD000080B500AF034B1800ED
:10434000FCF7E8FAC046BD4680BDC046E400002048
:1043500080B500AF034B1800FDF736FEC046BD46E2
:1043600080BDC0469C00002080B500AF1A4B1A6883
:10437000194B01210A431A60174B5A68164B17490B
:104380000A405A60144B1A68134B15490A401A60C8
:10439000114B1A68104B13490A401A600E4B5A68A9
:1043A0000D4B11490A405A600B4BDA6A0A4B0F2138
:1043B0008A43DA62084B1A6B074B0C490A401A63AE
:1043C000054B5A6B044B01218A435A63024B00226E
:1043D0009A60C046BD4680BD001002400CB8FF0880
:1043E000FFFFF6FEFFFFFBFFFFFFC0FF2CFEFFFFFE
:1043F00080B584B000AF434B9022D2051A60414B88
:104400009022D2055A603F4B9022D2059A603D4BD4
:104410009022D205DA603B4B9022D2051A61394BCB
:104420009022D2055A61374B9022D2059A61354BC2
:104430009022D205DA61344B01221A80324B0222DB
:104440005A80314B04229A802F4B0822DA802E4B5F
:1044500010221A812C4B20225A812B4B40229A8108
:10446000294B8022DA81294B00221A70284BFB60ED
:104470000B23FB1800221A700FE0FB681A880B2030
:104480003B181B78D1B2234AD154FB680233FB603E
:104490003B181A783B1801321A700B23FB181B7853
:1044A000072BEAD91C4B7B60FB1C00221A700EE024
:1044B0007B681988FB1C1A78184B9200D1507B68D6
:1044C00004337B60FB1C1A78FB1C01321A70FB1C46
:1044D0001B78072BECD9BB1C00221A700AE0BB1C0E
:1044E0001A780F4B92000021D150BB1C1A78BB1CCC
:1044F00001321A70BB1C1B78072BF0D9C046BD4691
:1045000004B080BD5C00002028010020580000207D
:1045100000700008BC010020007400087C0000202E
:10452000C4010020B0B58AB000AF0200FB1D1A70B4
:10453000BB1D0A1C1A70FB1D1B78072B61D8BB1D05
:104540001B78002B5BD0BB1D1B783C2B57D8BB1DA9
:104550001B7819002D48FBF761FE0300FB61FB1D72
:104560001A782B4B9200F969D150FB1D1A78294B10
:1045700092000021D150FCF757FB0023FB60102173
:104580007B1800221A607B18234A5A607B1801228C
:104590009A600C23FA187B1811001800FCF704FC31
:1045A0001E4B1A691D4B02218A431A61FCF762FBFC
:1045B000FCF73AFB184B7B6200233B6212E0144B82
:1045C0003A6A9200D3581C0000231D00796A220029
:1045D0002B000220FCF792FA7B6A04337B623B6A71
:1045E00001333B623B6A072BE9DD0C4B1A690B4B2D
:1045F00001218A431A61FCF73DFB012302E00023FD
:1046000000E000231800BD460AB0B0BD88130000CA
:104610007C000020C401002000740008002002403B
:10462000B0B588B000AF0200FB1D1A70BB1D0A1C9C
:104630001A70FB1D1B78072B68D8BB1D1B78002B3D
:1046400003D0BB1D1B78012B5ED1FB1D1B78324AAA
:10465000B91D0978D154FB1D1A78304B9200002106
:10466000D150FB1D1A782E4B9200D058FB1D1A78A2
:104670002C4B5200D15ABB1D1B781A00FCF7C5FD0C
:10468000FCF7D2FA0023BB600C217B1800221A60D1
:104690007B18254A5A607B1801229A600823FA1871
:1046A0007B1811001800FCF77FFB204B1A691F4B89
:1046B00002218A431A61FCF7DDFAFCF7B5FA1A4BBE
:1046C000FB610023BB6112E0134ABB69D3181B785E
:1046D0001C0000231D00F96922002B000120FCF7BB
:1046E0000DFAFB690233FB61BB690133BB61BB6936
:1046F000072BE9DD0D4B1A690C4B01218A431A6126
:10470000FCF7B8FA012302E0002300E000231800C0
:10471000BD4608B0B0BDC046BC010020C4010020A9
:104720005C000020280100200070000800200240EA
:10473000B0B582B000AF0200FB1D1A70FB1D1B78E4
:10474000164AD35C002B25D0FB1D1A78144B92001F
:10475000D458FB1D1A78134B5200D55AFB1D1A78FA
:104760000F4B9200D058FB1D1A780E4B5200D35AB3
:104770001900FCF72DFD031E05D10B4B1B78002BF8
:1047800001D0012300E00023DBB21A002900200041
:10479000FCF73BFDC046BD4602B0B0BDBC010020E9
:1047A0005C000020280100205800002013488546A6
:1047B00013480168090E134A914205D11248134962
:1047C000016013481349016013481449144A002337
:1047D00002E0D458C4500433C4188C42F9D3114AAF
:1047E000114C002301E013600432A242FBD3FFF717
:1047F000BBFD00F01DF8FFF7D9F8FEE7FF1700201A
:10480000040000001F00000018100240010000001A
:104810000000014000000000000000200C0000200B
:104820001049000810000020E4020020FEE700000C
:1048300070B500260C4D0D4C641BA410A64209D186
:10484000002600F02BF80A4D0A4C641BA410A64267
:1048500005D170BDB300EB5898470136EEE7B300C1
:10486000EB5898470136F2E7084900080849000864
:10487000084900080C490008002310B59A4200D1ED
:1048800010BDCC5CC4540133F8E703001218934206
:1048900000D1704719700133F9E70000F8B5C04640
:1048A000F8BC08BC9E467047F8B5C046F8BC08BCCA
:0448B0009E46704769
:1048B40002030405060708090A0B0C0D0E0F10105D
:1048C4000102030405060708090A0B0C0D0E0F105C
:1048D400F63E0008083F00086A3F0008E83F000869
:1048E400224000085A4000088440000800000000EC
:1048F400000000000102030406070809000000008C
:0449040001020304A5
:04490800E9000008BA
:04490C00C1000008DE
:0C491000040000000100000000127A000A
:04000005080047ADFB
:00000001FF
